:100000000C9462000C948A000C948A000C948A0070
:100010000C948A000C948A000C948A000C948A0038
:100020000C948A000C948A000C948A000C948A0028
:100030000C948A000C948A000C948A000C948A0018
:100040000C94D0040C948A000C9440050C941A056E
:100050000C948A000C948A000C948A000C948A00F8
:100060000C948A000C948A000000000023002600F3
:10007000290000000000240027002A0000000000E2
:10008000250028002B0004040404040404040202D4
:100090000202020203030303030301020408102007
:1000A0004080010204081020010204081020000012
:1000B0000008000201000003040700000000000027
:1000C0000000B70511241FBECFEFD8E0DEBFCDBFC3
:1000D00011E0A0E0B1E0E2E9F3E102C005900D9289
:1000E000A835B107D9F722E0A8E5B1E001C01D921B
:1000F000AA31B207E1F710E0C2E6D0E004C02197D0
:10010000FE010E94C109C136D107C9F70E9401064C
:100110000C94C7090C94000090E0FC01E255FF4FDD
:100120002491FC01E656FF4F3491FC01EA57FF4F42
:10013000E491EE23C9F0222339F0233001F1A8F431
:10014000213019F1223029F1F0E0EE0FFF1FE458C1
:10015000FF4FA591B4918FB7F894EC91611126C02F
:1001600030953E233C938FBF08952730A9F0283067
:10017000C9F0243049F7809180008F7D03C08091C1
:1001800080008F7780938000DFCF84B58F7784BD28
:10019000DBCF84B58F7DFBCF8091B0008F778093CC
:1001A000B000D2CF8091B0008F7DF9CF3E2BDACF57
:1001B000CF93DF9390E0FC01E656FF4F24918A57DE
:1001C0009F4FFC0184918823D1F090E0880F991F04
:1001D000FC01EE58FF4FA591B491FC01E458FF4F8C
:1001E000C591D49161110EC09FB7F8948C91E22F04
:1001F000E0958E238C932881E223E8839FBFDF91D3
:10020000CF9108958FB7F894EC91E22BEC938FBFC8
:10021000F6CF3FB7F8948091610190916201A0916F
:100220006301B091640126B5A89B05C02F3F19F06A
:100230000196A11DB11D3FBFBA2FA92F982F882766
:10024000BC01CD01620F711D811D911D42E0660F41
:10025000771F881F991F4A95D1F70895AF92BF92D3
:10026000CF92DF92EF92FF920F931F93CF93DF9382
:100270006C017B018B01040F151FEB015E01AE18B1
:10028000BF08C017D10759F06991D601ED91FC91D3
:100290000190F081E02DC6010995892B79F7C50100
:1002A000DF91CF911F910F91FF90EF90DF90CF9052
:1002B000BF90AF900895FC01538D448D252F30E001
:1002C000842F90E0821B930B541710F0CF96089563
:1002D00001970895FC01918D828D981761F0A28D90
:1002E000AE0FBF2FB11D5D968C91928D9F5F9F7356
:1002F000928F90E008958FEF9FEF0895FC01918D0C
:10030000828D981731F0828DE80FF11D858D90E078
:1003100008958FEF9FEF0895FC01918D228D892F15
:1003200090E0805C9F4F821B91098F7399270895FD
:1003300085E691E00E948C0121E0892B09F420E000
:10034000822F089580E090E0892B29F00E94980187
:1003500081110C9400000895FC01A48DA80FB92F01
:10036000B11DA35ABF4F2C91848D90E001968F73DD
:100370009927848FA689B7892C93A089B1898C91FC
:10038000837080648C93938D848D981306C002884B
:10039000F389E02D80818F7D80830895EF92FF9215
:1003A0000F931F93CF93DF93EC0181E0888F9B8D98
:1003B0008C8D98131AC0E889F989808185FF15C052
:1003C0009FB7F894EE89FF896083E889F989808175
:1003D0008370806480839FBF81E090E0DF91CF9144
:1003E0001F910F91FF90EF900895F62E0B8D10E066
:1003F0000F5F1F4F0F731127E02E8C8D8E110CC0D5
:100400000FB607FCFACFE889F989808185FFF5CF1F
:10041000CE010E94AC01F1CFEB8DEC0FFD2FF11D51
:10042000E35AFF4FF0829FB7F8940B8FEA89FB895C
:1004300080818062CFCFCF93DF93EC01888D8823BA
:10044000B9F0AA89BB89E889F9898C9185FD03C037
:10045000808186FD0DC00FB607FCF7CF8C9185FF1C
:10046000F2CF808185FFEDCFCE010E94AC01E9CFB4
:10047000DF91CF910895089590E080E00895FB0109
:1004800001900020E9F73197AF01461B570BDC01C3
:10049000ED91FC910280F381E02D09948F929F925F
:1004A000AF92BF92EF92FF920F931F93CF93DF9380
:1004B000CDB7DEB7A1970FB6F894DEBF0FBECDBFA4
:1004C0007C01FA01CB0119A2223008F42AE08E0146
:1004D0000F5D1F4F822E912CB12CA12CBF01A501C5
:1004E00094010E949F09F901CA016A300CF5605D10
:1004F000D8016E938D01232B242B252B79F790E0C7
:1005000080E0109721F0BD01C7010E943F02A19633
:100510000FB6F894DEBF0FBECDBFDF91CF911F9114
:100520000F91FF90EF90BF90AF909F908F900895A4
:10053000695CDECF2F923F924F925F926F927F92D3
:100540008F929F92AF92BF92CF92DF92EF92FF92E3
:100550001F93CF93DF93EC016A017B01722EAB01F5
:100560009601CB01B6010E949A096EE171E08111FA
:1005700026C046015701E894B7F82FEF3FEF4FE749
:100580005FE7C501B4010E949A0981110CC02FEFE9
:100590003FEF4FE75FE7C501B4010E94D00762E279
:1005A00071E0181664F02FEF3FEF4FE75FE4C701EB
:1005B000B6010E9428091816B4F466E271E0CE0173
:1005C000DF91CF911F91FF90EF90DF90CF90BF9080
:1005D000AF909F908F907F906F905F904F903F90E3
:1005E0002F900C943F022FEF3FEF4FE75FECC701D6
:1005F000B6010E94D00787FDE0CF20E030E0A901DE
:10060000C701B6010E94D007312C212C87FF0DC0F5
:10061000E881F9810190F081E02D6DE2CE0109952C
:100620001C01F7FAF094F7F8F09410E060E070E045
:1006300080E09FE3711641F020E030E040E251E4B9
:100640000E94D5071F5FF6CFA70196010E9464079D
:100650002B013C010E9447084B015C012AE0BC01D0
:10066000A401CE010E944E027C01E20CF31C112376
:10067000E1F1C501B4010E9476089B01AC01C30100
:10068000B2010E9463074B015C01E881F98101908E
:10069000F081E02D6EE2CE010995E80EF91E1150B1
:1006A00020F120E030E040E251E4C501B4010E94B5
:1006B0002D092B013C010E9447084B01B12CA12CB4
:1006C0002AE0B501A401CE010E944E02E80EF91EF7
:1006D000C501B4010E9476089B01AC01C301B201BF
:1006E0000E9463074B015C01DACFC701DF91CF9114
:1006F0001F91FF90EF90DF90CF90BF90AF909F90B1
:100700008F907F906F905F904F903F902F900895C3
:10071000CF93DF93EC0160E08E810E948C0061E05A
:100720008E810E948C0060E08E810E948C008BE89C
:1007300091E00197F1F7DF91CF910895CF92DF9289
:10074000EF92FF920F931F93CF93DF936C017C0185
:1007500087E0E80EF11CD0E0C0E0062F10E0B80101
:100760000C2E02C0759567950A94E2F76170F70147
:1007700081917F010E948C002196C430D10579F7C8
:10078000C601DF91CF911F910F91FF90EF90DF9005
:10079000CF900C948803CF92DF92EF92FF920F9349
:1007A0001F93CF93DF93EC01F62E642F8C810E9470
:1007B0008C008D818F3F19F060E00E948C000F2D1E
:1007C00010E08F8584FF25C06E0187E0C80ED11C24
:1007D000F12CE12CB8010E2C02C0759567950A9496
:1007E000E2F76170F60181916F010E948C00FFEFCA
:1007F000EF1AFF0A88E0E816F10461F7CE01DF91F5
:10080000CF911F910F91FF90EF90DF90CF900C94BC
:100810008803B80184E0759567958A95E1F7CE0164
:100820000E949E036F2DCE01DF91CF911F910F91FA
:10083000FF90EF90DF90CF900C949E0340E0682FE4
:1008400082E092E00C94CB03CF93DF93823029F4C3
:10085000909111029860909311028093150210926A
:10086000160280E48093170280E18093180280E5ED
:100870008093190261E0809106020E94D800809165
:1008800007028F3F19F061E00E94D80061E080917B
:1008900008020E94D800C2E0D2E09E0122503240FD
:1008A0008091110284FD0BC084E090E0219628170E
:1008B000390744F461E08E810E94D800EECF88E0D1
:1008C00090E0F4CF8BE39DE00197F1F760E0809139
:1008D00006020E948C0060E0809108020E948C0059
:1008E000809107028F3F19F060E00E948C00809198
:1008F000110284FD39C063E082E092E00E949E0311
:10090000CBE4D6E4CE010197F1F763E082E092E018
:100910000E949E032197F1F763E082E092E00E943B
:100920009E0383E592E00197F1F762E082E092E0B6
:100930000E949E038091110280620E941E0484E046
:10094000809312028CE00E941E0481E00E941E042B
:100950008BE39FE10197F1F782E08093130286E039
:10096000DF91CF910C941E0480620E941E048BE4E0
:1009700096E40197F1F78091110280620E941E04B3
:1009800083E592E00197F1F78091110280620E9465
:100990001E04D0CF41E00E94CB0381E090E0089597
:1009A0001F920F920FB60F9211242F933F938F93A4
:1009B0009F93AF93BF9380915D0190915E01A09151
:1009C0005F01B091600130915C0123E0230F2D376E
:1009D00058F50196A11DB11D20935C0180935D0126
:1009E00090935E01A0935F01B093600180916101DB
:1009F00090916201A0916301B09164010196A11DE3
:100A0000B11D8093610190936201A0936301B09343
:100A10006401BF91AF919F918F913F912F910F9062
:100A20000FBE0F901F90189526E8230F0296A11D68
:100A3000B11DD2CF1F920F920FB60F9211242F9398
:100A40003F934F935F936F937F938F939F93AF9356
:100A5000BF93EF93FF9385E691E00E94AC01FF9175
:100A6000EF91BF91AF919F918F917F916F915F9126
:100A70004F913F912F910F900FBE0F901F9018959F
:100A80001F920F920FB60F9211242F938F939F9363
:100A9000EF93FF93E0917501F09176018081E091F1
:100AA0007B01F0917C0182FD1BC0908180917E01D1
:100AB0008F5F8F7320917F01821741F0E0917E015B
:100AC000F0E0EB59FE4F958F80937E01FF91EF91FF
:100AD0009F918F912F910F900FBE0F901F9018959F
:100AE0008081F4CFCF92DF92EF92FF920F931F930A
:100AF000E82FF92F05C0015011092109310961F1D1
:100B0000908196239417B9F305C00150110921096A
:100B1000310911F1908196239413F7CFC12CD12C78
:100B2000E12CF12C0AC08FEFC81AD80AE80AF80A9B
:100B30000C151D052E053F0579F08081862384174D
:100B400091F36C2D7D2D8E2D9F2D1F910F91FF9078
:100B5000EF90DF90CF90089560E070E080E090E04B
:100B60001F910F91FF90EF90DF90CF900895E5E6F1
:100B7000F1E01382128288EE93E0A0E0B0E084837B
:100B80009583A683B78384E091E09183808385EC8D
:100B900090E09587848784EC90E09787868780EC47
:100BA00090E0918B808B81EC90E0938B828B82EC38
:100BB00090E0958B848B86EC90E0978B868B118EE2
:100BC000128E138E148EE2E0F2E01382128286E11E
:100BD00091E09183808385E184838FEF858386E133
:100BE000868387E1878382E1808783E1818785E04F
:100BF00082871386148615861686178681E00C94E4
:100C00002404789484B5826084BD84B5816084BDF9
:100C100085B5826085BD85B5816085BD80916E009A
:100C2000816080936E0010928100809181008260CB
:100C30008093810080918100816080938100809108
:100C400080008160809380008091B10084608093F7
:100C5000B1008091B00081608093B00080917A00F3
:100C6000846080937A0080917A00826080937A0019
:100C700080917A00816080937A0080917A00806808
:100C800080937A001092C10082E00E9424046AE2FC
:100C900071E082E092E00E943F0261E089E10E94FF
:100CA000D80060E08AE10E94D800E0917501F091DF
:100CB000760182E08083E0917101F09172011082EF
:100CC000E0917301F091740180E1808310927D01C5
:100CD000E0917901F0917A0186E08083E0917701DB
:100CE000F0917801808180618083E0917701F091BB
:100CF0007801808188608083E0917701F0917801AC
:100D0000808180688083E0917701F0917801808113
:100D10008F7D808323E0222E312CC3E2D0E03BE3A1
:100D2000A32E3FE1B32E40E0842E40E0942E60E0FD
:100D300089E10E948C00C1010197F1F761E089E12E
:100D40000E948C00CE010197F1F760E089E10E94DA
:100D50008C00E4EBF0E06491E0EAF0E08491E82FAD
:100D6000F0E0EE0FFF1FE859FF4F8591949100E4EA
:100D700012E42FE030E0462F0E94720561157105E4
:100D80008105910529F06F5F7F4F8F4F9F4F9F70B7
:100D90000E94780826E933E44BE05DE30E942D09C8
:100DA00020E030E040E05FE30E942D0960935801AD
:100DB0007093590180935A0190935B0181E00E94E6
:100DC0001E04C5010197F1F7E1E080911502811140
:100DD000E0E0E195F0E0EE5FFD4F848980680E94DD
:100DE0001E0467E371E082E092E00E943F02E0911E
:100DF0001502E23008F065C0E150F0E0EE5FFD4F13
:100E0000848980680E941E044091580150915901C4
:100E100060915A0170915B0122E082E092E00E94B1
:100E20009A0261E471E082E092E00E943F0265E490
:100E300071E085E691E00E943F0240915801509197
:100E4000590160915A0170915B0122E085E691E0C1
:100E50000E949A0265E571E085E691E00E943F02FA
:100E60000E9409012B013C0188EEC82E83E0D82E98
:100E7000E12CF12C0E940901641975098609970972
:100E8000683E734081059105A8F3F1E0CF1AD108BF
:100E9000E108F10828EE420E23E0521E611C711C8D
:100EA000C114D104E104F10429F78114910409F477
:100EB0003ECF0E949801882309F439CF0E94000098
:100EC00036CFE1E09ACF5058BB27AA270E947B0774
:100ED0000C94EE080E94E00838F00E94E70820F029
:100EE00039F49F3F19F426F40C94DD080EF4E095D4
:100EF000E7FB0C94D708E92F0E94FF0858F3BA17B4
:100F0000620773078407950720F079F4A6F50C941F
:100F100021090EF4E0950B2EBA2FA02D0B01B9017B
:100F200090010C01CA01A0011124FF27591B99F05F
:100F3000593F50F4503E68F11A16F040A22F232F6B
:100F4000342F4427585FF3CF469537952795A795BB
:100F5000F0405395C9F77EF41F16BA0B620B730B62
:100F6000840BBAF09150A1F0FF0FBB1F661F771FD3
:100F7000881FC2F70EC0BA0F621F731F841F48F488
:100F8000879577956795B795F7959E3F08F0B0CF11
:100F90009395880F08F09927EE0F979587950895F8
:100FA0000E94B30808F481E008950E94E9070C94B8
:100FB000EE080E94E70858F00E94E00840F029F48B
:100FC0005F3F29F00C94D70851110C9422090C941E
:100FD000DD080E94FF0868F39923B1F3552391F3CC
:100FE000951B550BBB27AA2762177307840738F098
:100FF0009F5F5F4F220F331F441FAA1FA9F335D0F5
:101000000E2E3AF0E0E832D091505040E695001CA8
:10101000CAF72BD0FE2F29D0660F771F881FBB1F62
:10102000261737074807AB07B0E809F0BB0B802D40
:10103000BF01FF2793585F4F3AF09E3F510578F06C
:101040000C94D7080C9422095F3FE4F3983ED4F344
:10105000869577956795B795F7959F5FC9F7880F40
:10106000911D9695879597F90895E1E0660F771F92
:10107000881FBB1F621773078407BA0720F0621B23
:10108000730B840BBA0BEE1F88F7E09508950E944E
:10109000070988F09F5798F0B92F9927B751B0F0FA
:1010A000E1F0660F771F881F991F1AF0BA95C9F7EC
:1010B00014C0B13091F00E942109B1E008950C9460
:1010C0002109672F782F8827B85F39F0B93FCCF313
:1010D000869577956795B395D9F73EF49095809569
:1010E000709561957F4F8F4F9F4F0895E89409C089
:1010F00097FB3EF490958095709561957F4F8F4F4B
:101100009F4F9923A9F0F92F96E9BB279395F69560
:10111000879577956795B795F111F8CFFAF4BB0FDE
:1011200011F460FF1BC06F5F7F4F8F4F9F4F16C042
:10113000882311F096E911C0772321F09EE8872FCC
:10114000762F05C0662371F096E8862F70E060E088
:101150002AF09A95660F771F881FDAF7880F969501
:10116000879597F90895990F0008550FAA0BE0E8A5
:10117000FEEF16161706E807F907C0F01216130659
:10118000E407F50798F0621B730B840B950B39F499
:101190000A2661F0232B242B252B21F408950A26FF
:1011A00009F4A140A6958FEF811D811D089597F93F
:1011B0009F6780E870E060E008959FEF80EC0895FD
:1011C00000240A9416161706180609060895002426
:1011D0000A9412161306140605060895092E0394A0
:1011E000000C11F4882352F0BB0F40F4BF2B11F414
:1011F00060FF04C06F5F7F4F8F4F9F4F089557FD73
:101200009058440F551F59F05F3F71F04795880F74
:1012100097FB991F61F09F3F79F08795089512160B
:1012200013061406551FF2CF4695F1DF08C01616B7
:1012300017061806991FF1CF869571056105089468
:101240000895E894BB2766277727CB0197F908957F
:101250000E94B30808F48FEF08950E9440090C948F
:10126000EE080E94E00838F00E94E70820F095237D
:1012700011F00C94D7080C94DD0811240C94220969
:101280000E94FF0870F3959FC1F3950F50E0551F22
:10129000629FF001729FBB27F00DB11D639FAA27CB
:1012A000F00DB11DAA1F649F6627B00DA11D661F1A
:1012B000829F2227B00DA11D621F739FB00DA11D3B
:1012C000621F839FA00D611D221F749F3327A00DF5
:1012D000611D231F849F600D211D822F762F6A2F91
:1012E00011249F5750409AF0F1F088234AF0EE0FF6
:1012F000FF1FBB1F661F771F881F91505040A9F723
:101300009E3F510580F00C94D7080C9422095F3F52
:10131000E4F3983ED4F3869577956795B795F7955E
:10132000E7959F5FC1F7FE2B880F911D96958795D6
:1013300097F908950E94B308880B990B0895A1E2CC
:101340001A2EAA1BBB1BFD010DC0AA1FBB1FEE1F3F
:10135000FF1FA217B307E407F50720F0A21BB30B8A
:10136000E40BF50B661F771F881F991F1A9469F706
:1013700060957095809590959B01AC01BD01CF0162
:101380000895EE0FFF1F0590F491E02D0994F89455
:02139000FFCF8D
:1013920000000000CE012E015B011B028C016A01DC
:1013A2007E0100000000CA042E013C023B026E6175
:1013B2006E00696E66006F7666004D6561737572C8
:1013C200696E672E2E2E0044697374616E63653AEE
:1013D2000020636D0044697374616E636520286345
:0813E2006D293A20000D0A00FC
:00000001FF
